:020000040800F2
:100000005009002089010008712B0008752900089B
:100010006D2B0008890200081D2F00080000000059
:10002000000000000000000000000000552C000847
:100030009104000800000000752B0008592C0008EE
:10004000A3010008A3010008A3010008A301000800
:10005000A3010008A3010008A3010008A3010008F0
:10006000A3010008A3010008A3010008A3010008E0
:10007000A3010008A3010008A3010008A3010008D0
:10008000A3010008A3010008A3010008A3010008C0
:10009000A3010008A3010008A3010008A3010008B0
:1000A000A3010008A3010008A3010008A3010008A0
:1000B000A3010008612C00086D2C0008A3010008B2
:1000C000A3010008A3010008A3010008A301000880
:1000D000A30100083D2D00084D2D0008A3010008D4
:1000E000A3010008A3010008A301000800F002F822
:1000F00000F03AF80AA090E8000C82448344AAF188
:100100000107DA4501D100F02FF8AFF2090EBAE885
:100110000F0013F0010F18BFFB1A43F0010318473B
:10012000BC320000DC320000103A24BF78C878C12D
:10013000FAD8520724BF30C830C144BF04680C60ED
:10014000704700000023002400250026103A28BF35
:1001500078C1FBD8520728BF30C148BF0B60704739
:100160001FB51FBD10B510BD00F036F81146FFF7E2
:10017000F7FF02F0E7FE00F054F803B4FFF7F2FFD8
:1001800003BC00F057F800000948804709480047C1
:10019000FEE7FEE7FEE7FEE7FEE7FEE7FEE7FEE737
:1001A000FEE7FEE704480549054A064B7047000094
:1001B0005D2C0008ED0000085003002050090020CD
:1001C0005005002050050020704770477047000020
:1001D00000487047100000207546FFF7F9FFAE4653
:1001E00005006946534620F00700854618B020B543
:1001F000FFF7D8FFBDE820404FF000064FF00007A2
:100200004FF000084FF0000BAC46ACE8C009ACE87A
:10021000C009ACE8C009ACE8C00921F007018D466F
:10022000704710B50446AFF300802046BDE810408B
:10023000FFF7A3BF01491820ABBEFEE7260002006E
:100240007047000010B540F60044C4F20104204697
:100250000421002200F0EAFA20460221002200F0E8
:10026000E5FA20460121002200F0E0FAA4F58064BE
:1002700020468021002200F0D9FA204640210022A9
:10028000BDE8104000F0D2BAFEE700002DE9F04FC3
:1002900081B040F60008C4F201080746404610212C
:1002A00000224FF0000900F0C1FA40462021002250
:1002B00000F0BCFA6420642600F096F940F2C00415
:1002C000C2F2000448F2015040F248152080032099
:1002D000C2F20005A070284690212246032348F26E
:1002E000015B4FF0030A009600F0D8FE7D2084F8F1
:1002F000009000F079F928469021224601230096CB
:1003000000F0CCFE7D2000F06FF9284690212246B7
:100310000223009600F052FB208840F2C40100BA8C
:1003200040F2B829C2F20001000CC2F2000901EB50
:10033000C707A9F8000027F8080C40462021012231
:1003400000F074FA40461021002200F06FFA642099
:1003500000F04AF92846902122460323A4F800B071
:1003600048F2015B84F802A0009600F097FE00209E
:1003700020707D204FF0000A00F036F928469021C9
:1003800022460123009600F089FE7D2000F02CF922
:100390002846902122460223009600F00FFB208879
:1003A000102100BA000CA9F8000027F8060C4046FE
:1003B000012200F03BFA40462021002200F036FAEC
:1003C000642000F011F90320A070284690212246F5
:1003D0000323A4F800B048F2015B009600F05EFE33
:1003E0007D2084F800A04FF0000A00F0FDF82846B8
:1003F000902122460123009600F050FE7D2000F05F
:10040000F3F82846902122460223009600F0D6FAFF
:100410002088202100BA000CA9F8000027F8040C5D
:100420004046012200F002FA40461021012200F06D
:10043000FDF9642000F0D8F80320A0702846902130
:1004400022460323A4F800B0009600F027FE7D208A
:1004500084F800A000F0C8F8284690212246012325
:10046000009600F01BFE7D2000F0BEF8284690218B
:1004700022460223009600F0A1FA208800BA000C60
:10048000A9F8000027F8020C01B0BDE8F08F0000C9
:1004900070470000002804BF0120704710B50446D3
:1004A000407918B101206071002010BD002020713A
:1004B000204600F005F801206071002010BD00000A
:1004C00081B0006843F20001C4F20201884201D009
:1004D00001B0704741F21400C4F20200016841F01B
:1004E00040010160006800F040000090009801B0F9
:1004F00070470000014690F82100022816D10868D4
:10050000D1E90FC3026822F00E020260026822F0F5
:1005100001020260012000FA03F2CCF8042081F805
:1005200021000020002281F82020704704208863E9
:100530000120002281F820207047000080B590F84B
:100540002110022924D10268116821F00E011160E6
:100550002F211368C4F202018A4240F20401C4F25E
:10056000020123F00103136016DD3023C4F20203FD
:100570009A421DD04423C4F202039A421CD058234D
:10058000C4F202039A421DD14FF4803322E000BF2F
:1005900004218163012080BD0823C4F202039A4232
:1005A0000ED01C23C4F202039A420BD1102311E097
:1005B0004FF480730EE000BF4FF480530AE000BF99
:1005C000012307E001F1680C4FF08073624508BF1A
:1005D0004FF480130B60416B4FF48072028401B1C1
:1005E0008847002080BD0000B0B5044600F024F923
:1005F000054640F20000C2F200000078611C18BFFE
:10060000044400BF00F018F9401BA042FAD3B0BD6B
:100610002DE9F04F82B00E68002E00F0038140F209
:100620000C4C41F200424FF6FF7EC4F2010CC4F2C2
:100630000102042700240123C1F2100E4FF0000A2A
:100640004FF00009904208BF0327009745E000BF24
:10065000012704F00C030F229A402BEA020207FA4A
:1006600003F34FEA9A051A4346F82520D1F804B05F
:1006700040F20045C4F201055FEACB322A6854BF5C
:1006800022EA080242EA08022A606A685FEA8B33BB
:1006900054BF22EA080242EA08026A605FEACB23FA
:1006A000AA6854BF22EA080242EA08025FEA8B23E2
:1006B000AA60DCF800204FF0010354BF22EA0802D0
:1006C00042EA0802CCF800200E680AF1010A36FA64
:1006D0000AF204F1040400F0A58003FA0AF816EA0D
:1006E000080FF1D04E68764512DC122E56D8DFE89E
:1006F00006F0350B454955555555555555555555E4
:100700005555554D510000BFD1F80C9046E000BF43
:100710004FF6FF72C1F2210296420FDC0022C1F2B5
:10072000110296421AD00022C1F21202964215D04E
:100730000022C1F22102964210D02FE00022C1F225
:10074000220296420AD00022C1F23102964205D01E
:100750000022C1F23202964220D100BF8A684AB11B
:10076000012A14BFC0F81480C0F810804FF00809A7
:1007700014E000BF4FF0040910E000BFCA6802F1A6
:1007800008090BE04FF0000908E000BFCA6802F159
:10079000040903E0CA6802F10C0900BF22460646BC
:1007A000BAF1080F24BF203A043637680F25954068
:1007B00027EA050509FA02F22A433260CA79D2060D
:1007C0007FF582AF41F21803C4F202031A6842F0C7
:1007D00001021A601A6802F001020192019A40F2C5
:1007E0000042C4F20102A2F57E762AF0030256F816
:1007F00002B040F60002C4F20102904210D040F66E
:100800000042C4F2010290423FF422AF41F20002E2
:10081000C4F20102009F904208BF022719E700BFFF
:10082000002716E702B0BDE8F08F0000002A08BFDD
:10083000090401617047000040F24C30C2F2000030
:100840000068704770B5B8B3044690F83D0028B909
:10085000002084F83C00204600F05CFE242084F850
:100860003D002068016821F001010160016841F448
:1008700000410160016821F40041016001F04CF881
:1008800048F28041C0F21E0140F60013D4F804E0A3
:1008900088424FF00001C0F23D0348F2A16C4FF0D6
:1008A000000238BF01219842C0F2010C38BF01227A
:1008B000E64538BF0A460AB1012070BD4DF6836196
:1008C000C4F21B31A0FB01122168950C4B684FF458
:1008D000967623F03F0343EA9243754344F6D3569A
:1008E0004B60C1F262060B6AA5FB0656B50923F000
:1008F0003F03E64538BF950C6A1C1A430A62CA6971
:1009000048F2A0664CF6FF73C0F20106B64522EA33
:1009100003020BD801384FEA4E03B0FBF3F001306D
:100920006FF31F30042898BF04201EE0A36801382D
:1009300063B119230EFB03F3B0FBF3F001306FF347
:100940001F3078B100F5804008E000BF0EEB4E0389
:10095000B0FBF3F001306FF31F3028B100F5004019
:1009600003E000BF012000E001201043C8610868D7
:10097000D4E9072320F0C0001043184308608868BA
:1009800048F2FF3204F10C0690434CCE184310435A
:10099000A5698860C86820F0FF0030432843C8601C
:1009A000086840F00100086000202021206484F8DD
:1009B0003D10206384F83E0070BD00002DE9F04733
:1009C00082B0044600201F46164688460090FFF776
:1009D00033FF94F83D1020291CD105462068816919
:1009E000890713D5FFF728FF401B1928F6D90020E7
:1009F0002021206384F83D1084F83E00216C41F0F2
:100A00002001216484F83C0004E000BF94F83C100D
:100A1000012903D1022002B0BDE8F087012184F84A
:100A20003C100168C90703D1016841F00101016070
:100A3000016821F400610160222184F83D10102139
:100A400084F83E100021216466626785618D2185EE
:100A50000021CFF6FF71E162E16A026811F5803F83
:100A600042F48062026018BF012919D1016841F483
:100A70008071016041690A9EC90724D1711C18D098
:100A8000002E00F0CB8000BFFFF7D6FE401BB04227
:100A900000F2C68020684169C907F5D013E000BFA5
:100AA0000829E3D0216B1129E0D0E3E74169C907A8
:100AB00009D14169C90706D14169C90704BF416924
:100AC0005FEAC171F2D02169B1F5804F08D148F0D9
:100AD0000101C9B201614169890740F1CC8003E19C
:100AE000062101EAD81707F1F00101614169090700
:100AF00038D44169721C01F4806113D0002940F0A0
:100B0000EA80002E00F06A82FFF796FE401BB0429A
:100B100000F2668220684169090723D441694905CA
:100B2000F2D5D8E0002940F0D6804169090719D4F0
:100B30004169490500F1CF804169090712D4416933
:100B4000490500F1C880416909070BD4416949058D
:100B500000F1C1804169090704D441694905E4D520
:100B6000B9E000BF5FFA88F101614169890739D4B2
:100B70004169721C01F4806114D0002940F0AB80FF
:100B8000002E00F02B82FFF757FE401BB04200F210
:100B9000278220684169890724D441694905F2D533
:100BA00099E000BF002940F096804169890719D477
:100BB0004169490500F18F804169890712D4416973
:100BC000490500F18880416989070BD441694905CD
:100BD00000F181804169890704D441694905E4D560
:100BE00079E000BF00210191416901918169019182
:100BF0000199016841F4807101604169C90734D1EC
:100C0000711C28D056B1FFF717FE401BB04207D821
:100C100020684169C907F6D027E000BFFFF70CFE46
:100C200000202021206384F83D1084F83E00216CD0
:100C300041F020012164216884F83C000868C00567
:100C400044BF4FF400702064012002B0BDE8F0877B
:100C50004169C90709D14169C90706D14169C90775
:100C600004BF41695FEAC171F2D047F0F10101614F
:100C70004169890738D44169721C01F4806111D03F
:100C800049BB002E00F0AA81FFF7D6FD401BB04201
:100C900000F2A68120684169890725D44169490588
:100CA000F2D518E0B9B9416989071DD441694905F0
:100CB00011D44169890717D4416949050BD44169A9
:100CC000890711D44169490505D4416989070BD4C5
:100CD00041694905E7D5016841F4007101606FF48D
:100CE0008061416104207CE1218D022910D001291D
:100CF00024D0002938D100210191416901918169F5
:100D000001910199016841F40071016037E000BF71
:100D1000016841F400610160EFF3108072B60020B9
:100D200001902068416901918169019101990168EF
:100D300021F48061016062B621E000BF016821F406
:100D400080610160EFF3108072B60020019020688E
:100D500041690191816901910199016841F4007132
:100D6000016062B60BE000BF016841F48061016080
:100D70000021019141690191806901900198208DC4
:100D8000002800F01F8140F208084BF28959771CB7
:100D9000C2F20008C1F2F8494FF0230A80B20328DA
:100DA00018D8022840D0012868D1002E00F0D68043
:100DB0002068014651F8142F520600F1D3800868CC
:100DC000C00600F14381FFF737FD401BB042EFD969
:100DD00031E100BF86B100BF2068014651F8142FF1
:100DE00052060ED40868C00600F13081FFF724FDDA
:100DF000401BB042F0D91EE120684169490640F12C
:100E000013810069616A0870606A2268411C208D44
:100E1000616201382085638D013B638553695B07FF
:100E200040F1AC8010699FE02068416949070FD408
:100E3000002F00F0A780002E00F01C81FFF7FCFCC3
:100E4000401BB04200F21881206840694007F5D588
:100E5000EFF3108072B62068616A026842F4007293
:100E6000026000690870606A218D01306062481E6E
:100E70002085608D0138608562B66AE0206841692E
:100E800049070FD4002F00F08D80002E00F0F28073
:100E9000FFF7D2FC401BB04200F2EE8020684169AF
:100EA0004907F5D5016821F480610160EFF31080F6
:100EB00072B62068616A00690870606A218D01302D
:100EC000013960622185618D01396185D8F8001092
:100ED000C908A1FB0912110A01FB0AF1009100994E
:100EE000013900910099002900F08C8021684A693D
:100EF00052071ED40099013900910099002900F091
:100F0000818021684A69520713D400990139009100
:100F10000099002976D021684A69520709D40099BE
:100F200001390091009900296CD021684A69520763
:100F3000D5D50A6842F400720A6009690170606AD6
:100F4000218D01306062481E2085608D01386085EA
:100F500062B62068616A006906E000BF20684169E6
:100F6000490661D50069616A0870606A218D0130A7
:100F70006062481E2085618D0139618501047FF41E
:100F80000DAF1FE0416949073FF562AF416949076D
:100F90005CBF41695FEA41713FF55AAF416949075A
:100FA000F0D555E7416949073FF57CAF41694907ED
:100FB0005CBF41695FEA41713FF574AF4169490720
:100FC000F0D56FE7202084F83D00002084F83E0033
:100FD00084F83C0002B0BDE8F08700BFFFF72CFCAE
:100FE000202000212022216384F83D2084F83E1037
:100FF000226C1043206484F83C10012002B0BDE84C
:10100000F08700BF00202021206384F83D1084F881
:101010003E00216C41F02001216462B684F83C005E
:10102000012002B0BDE8F08750F8141FC906014640
:101030000CD4FFF701FC00202021206384F83D1030
:1010400084F83E00206C40F020000AE06FF01000B1
:10105000086000202021206384F83D1084F83E00C1
:10106000206C2064002084F83C00012002B0BDE820
:10107000F08700BFFFF7E0FB00202021206384F809
:101080003D1084F83E00216C41F02001216484F879
:101090003C00012002B0BDE8F08700002DE9F043DC
:1010A00081B01F46164688460446FFF7C5FB94F8F4
:1010B0003D10202920D1054620688169890717D570
:1010C000FFF7BAFB401B1928F6D900202021206326
:1010D00084F83D1084F83E00216C022641F0200186
:1010E000216484F83C00304601B0BDE8F08300BFC5
:1010F00094F83C10012905D10226304601B0BDE824
:10110000F08300BF012184F83C100168C90703D1B6
:10111000016841F001010160016821F40061016092
:10112000212184F83D10102184F83E100021216413
:1011300066626785618D21850021CFF6FF71E162CE
:10114000E16A11F5803F18BF012919D1016841F406
:10115000807101604169DDF82090C90723D119F140
:10116000010116D0B9F1000F46D000BFFFF764FBB4
:10117000401B484542D820684169C907F6D012E0B3
:101180000829E3D0216B1229E0D0E3E74169C907C0
:1011900009D14169C90706D14169C90704BF41693D
:1011A0005FEAC171F2D02169B1F5804F02D1FE2111
:1011B00061E000BF062101EAD811F0310161416907
:1011C000090757D4416919F1010201F480612FD058
:1011D000002946D1B9F1000F00F04281FFF72CFB46
:1011E000401B484500F23E8120684169090741D40F
:1011F00041694905F2D534E0FFF71EFB00202021AC
:10120000206384F83D1084F83E00216C012641F0F3
:1012100020012164216884F83C000868C00544BFAF
:101220004FF400702064304601B0BDE8F08300BF89
:10123000B9B9416909071DD44169490511D441690A
:10124000090717D4416949050BD44169090711D42D
:101250004169490505D4416909070BD4416949052C
:10126000E7D5016841F4007101606FF4806141616C
:101270000420F8E0FF2101EA0801016141698907C2
:101280003AD4416919F1010201F4806112D051BBD5
:10129000B9F1000F00F0E080FFF7CEFA401B48459F
:1012A00000F2DC8020684169890725D4416949053D
:1012B000F2D518E0B9B9416989071DD441694905DA
:1012C00011D44169890717D4416949050BD4416993
:1012D000890711D44169490505D4416989070BD4AF
:1012E00041694905E7D5016841F4007101606FF477
:1012F000806141610420B6E00026009641690091BA
:10130000816900910099218D002900F0958009F1F3
:101310000108014651F8142F120635D4B8F1000F18
:1013200016D0B9F1000F00F0AF8000BF086840058B
:1013300000F1B280FFF780FA401B484500F2A98017
:101340002068014651F8142F1206EFD51CE000BFAB
:101350000A68520500F1A0800A68120614D40A68CF
:10136000520500F199800A6812060DD40A685205E8
:1013700000F192800A68120606D40A68520500F14C
:101380008B800A681206E3D5636A194611F8012BAF
:1013900002616162618D01396185278D0146A7F186
:1013A000010CA4F828C051F8142F52070DD55FEA9C
:1013B0000C420AD05A78A7F1020C02619A1C6262B0
:1013C000628D013A6285A4F828C00A6852072FD4BA
:1013D000B8F1000F14D0B9F1000F7BD008684005B8
:1013E00000F18080FFF728FA401B484577D8206835
:1013F000014651F8142F5207F0D5B4F828C017E071
:101400000A6852056ED40A68520711D40A68520558
:1014100068D40A6852070BD40A68520562D40A6875
:10142000520705D40A6852055CD40A685207E7D50A
:101430005FEA0C417FF46DAF016841F40071016017
:10144000202084F83D0084F83E6084F83C603046FB
:1014500001B0BDE8F08300BFFFF7EEF9202002E005
:10146000FFF7EAF9202000212022216384F83D20A3
:1014700084F83E10226C01261043206484F83C104E
:10148000304601B0BDE8F0830868400504D4FFF79A
:10149000D3F9202004E000BF6FF4806008600420CE
:1014A00000212022216384F83D2084F83E10226C24
:1014B0001043206484F83C10206C042825D1206857
:1014C0000126016841F400710160304601B0BDE8B9
:1014D000F08300BF0868400504D4FFF7ADF9202071
:1014E00004E000BF6FF48060086004200021202227
:1014F000216384F83D2084F83E10226C1043206460
:1015000084F83C10206C0428D9D00126304601B064
:10151000BDE8F08310B586B0006845F60001C4F25E
:10152000000188424FF00001CDE90411CDE902111C
:1015300034D045F20041C4F20001884252D141F258
:101540001804C4F20204206802A940F008002060D8
:10155000206800F00800019001984FF4407002905C
:10156000122003900320059040F60040C4F20100D1
:10157000FFF74EF80420C4F20100016841F0E06179
:1015800041F002010160606840F400106060606832
:1015900000F400100190019806B010BD41F218044B
:1015A000C4F20204206802A940F00800206020680C
:1015B00000F00800019001984FF440600290122062
:1015C00003900320059040F60040C4F20100FFF7AD
:1015D0001FF8606840F480006060606800F480007C
:1015E0000190019806B010BD40F2000040F24C316D
:1015F000C2F20000C2F2000100780A6810440860DC
:101600007047000080B542F20000C4F20200016899
:1016100041F010010160032000F08EF80F2000F06F
:1016200005F800F027F8002080BD000070B540F2FA
:101630000006C2F2000640F208013278C2F2000150
:101640004FF47A730968B3FBF2F20446B1FBF2F18E
:10165000084600F063FB0F2C4FF0010508D838B99D
:101660004FF0FF3021460022002500F039F8746069
:10167000284670BD82B041F21800C4F20200016831
:10168000022241F001010160016801F001010191B4
:101690000199416841F080514160406800F08050FC
:1016A000009000980420C4F20100016862F31A61FE
:1016B000016002B070470000002848BF7047C1B207
:1016C00000F01F00012202FA00F04EF20012CEF2EA
:1016D000000242EAD10121F00301086070470000D6
:1016E00010B54EF60C5CCEF2000CDCF80030C3F303
:1016F000022E8EF00704042C28BF0424BEF103033D
:101700004FF0FF3E0EFA04F438BF0023A143994086
:101710000EFA03F39A43114300F00F0200F1604305
:101720000901043A03F564436244002848BF02F10A
:101730000C03197010BD00004EF60C51CEF20001E2
:101740000A684FF6FF031A4060F30A2242F08060F5
:1017500040F0FD70086070472DE9F04381B000282B
:1017600000F0858042F20008C4F202080446D8F86E
:1017700000000D4600F0070088420CD2D8F80000A7
:1017800020F007002843C8F80000D8F8000000F057
:101790000700A8426BD1206841F204098107C4F216
:1017A000020917D5410705D5D9F8001041F4E061C9
:1017B000C9F80010010705D5D9F8001041F46051AF
:1017C000C9F80010D9F80010A26821F0F001114307
:1017D000C9F80010C00741D1D8F8000000F0070098
:1017E000A8420CD9D8F8000020F007002843C8F818
:1017F0000000D8F8000000F00700A84237D12068A8
:10180000410707D5D9F80010E26821F4E0611143DF
:10181000C9F80010000708D5D9F80000216920F4A4
:10182000605040EAC100C9F80000D9F8002002F079
:101830000C00082841F20020C0F27A0050D143F297
:10184000CC33C2F38341C0F60003595CD2033BD4CE
:1018500040F60010C0F23D00484341E060680228B5
:101860000AD001282AD159F8041C890308D4012080
:1018700001B0BDE8F08300BF59F8041C8901F6D51A
:10188000D9F8001021F003010843C9F80000FEF761
:10189000D3FF064641F28837D9F80000616800F0AE
:1018A0000C00B0EB810F97D0FEF7C6FF801BB8424B
:1018B000F2D9032001B0BDE8F08300BF59F8041C41
:1018C0008907D4D5DCE700BFD9F8002043F2B23352
:1018D000C2F34042C0F600039A5C4843B0FBF2F00A
:1018E000D9F8001043F2B432C1F30311C0F600027C
:1018F000515C40F2080220FA01F140F20400C2F209
:1019000000000068C2F200021160FFF78FFE0020A5
:1019100001B0BDE8F083000040F2080041F204018C
:10192000C2F20000C4F202010068096843F2C43246
:10193000C1F30221C0F60002515CC84070470000AC
:1019400040F2080041F20401C2F20000C4F20201B8
:101950000068096843F2C432C1F3C221C0F6000234
:10196000515CC840704700002DE9F04182B000286A
:1019700068D00446007841F20006C007C4F20206AF
:1019800025D0706800F00C0004281BD0706800F0AF
:101990000C00082802D17068C00313D460680028C6
:1019A00000F06881B0F5A02F00F07C81B0F5803F99
:1019B00000F07C81306820F480303060306820F4A2
:1019C000802076E13068800301D56068D0B320784C
:1019D000800718D5706810F00C0F07D0706800F001
:1019E0000C0008286ED17068C0036BD43068800783
:1019F00002D52069012825D13068616920F0F800FE
:101A000040EAC1003060207800071FD420784007EA
:101A100032D4E56995B1706800F00C00082840F0F8
:101A20008F80012D0ED07068216A00F480328A42C6
:101A300008D1616A00F47010884203D1002002B01E
:101A4000BDE8F081012002B0BDE8F081A069002866
:101A500062D00020C4F242200121C0F88014FEF7B9
:101A6000EBFE0546706A800700F18C80FEF7E4FE0D
:101A7000401B0228F6D92AE1F06910F0805808D1FD
:101A8000F06940F08050F061F06900F08050009003
:101A9000009847F20007C4F200073868C00529D44F
:101AA000386840F480703860FEF7C6FE054600BF17
:101AB0003868C0051ED4FEF7BFFE401B6428F7D966
:101AC00005E100BF2069002840F20000C4F2422076
:101AD00000F0828001210160FEF7AEFE054600BFE6
:101AE000306880073FF588AFFEF7A6FE401B02284E
:101AF000F6D9ECE0E068002800F08080052800F0CE
:101B00009780012800F09880306A20F00100306250
:101B1000306A20F0040092E00020C4F2422000214C
:101B2000C0F88014FEF788FE054600BF706A800783
:101B30007FF56CAFFEF780FE401B0228F6D9C6E0A9
:101B40000027C4F2422700203866FEF775FE022DFA
:101B500005460BD13068800140F1BE80FEF76CFE77
:101B6000401B02284FF00300F4D968E73068800179
:101B70007FF564AFFEF760FE401B02284FF00300C4
:101B8000F4D95CE740F20800C2F20000006844F6B5
:101B9000D351C1F26201A0FB0101480A019000BFCC
:101BA00000BF0198411E002801913FF42FAF00BFF4
:101BB0000198411E002801913FF428AF00BF019811
:101BC000411E002801913FF421AF00BF0198411E42
:101BD00000280191E4D119E700210160FEF72CFEF5
:101BE000054600BF306880077FF50DAFFEF724FE85
:101BF000401B02284FF00300F4D920E7306A20F0A0
:101C000001003062306A20F004003062FEF714FEFA
:101C1000054641F2883700BF306A800720D5FEF7BD
:101C20000BFE401BB8424FF00300F5D907E700BF99
:101C3000306A40F004003062306A40F001003062E7
:101C4000FEF7FAFD054641F2883700BF306A80078B
:101C500006D4FEF7F1FD401BB842F7D937E000BFCC
:101C6000B8F1000F7FF4D5AEF06920F08050F0613C
:101C7000CFE600BF306820F480303060306820F458
:101C800080203060FEF7D8FD054600BF3068800335
:101C90007FF59DAEFEF7D0FD401B64284FF003009A
:101CA000F4D9CCE6306840F480203060306840F4ED
:101CB00080303060FEF7C0FD054600BF306880030D
:101CC0003FF585AEFEF7B8FD401B6428F6D903202A
:101CD00002B0BDE8F08100BF206AB0F5803F05D1B9
:101CE0007168A26821F40031114371607168626A01
:101CF00021F4741111430843706001203866FEF727
:101D00009BFD0446306880013FF598AEFEF794FDD8
:101D1000001B02284FF00300F4D990E6411E00207A
:101D2000B0EB116F1CBF012070474EF21002CEF2D3
:101D3000000251604EF62351CEF20001F0230B70E9
:101D400007219060116070477047000070470000E5
:101D500010B590F83C20012A4FF0020233D080F8F1
:101D60003D200268D2F804E0D2F808C00C682EF0DA
:101D70007003234340F2FF74C4F20004A242536094
:101D80000ADCB2F1804F13D040F20043C4F20003EA
:101D90009A420DD011E000BF42F60043C4F20103A5
:101DA0009A4205D040F60003C4F200039A4204D1DF
:101DB00049682CF08003194391600121002280F8CA
:101DC0003D1080F83C20104610BD0000002804BFE4
:101DD0000120704710B5044690F83D0028B9002056
:101DE00084F83C00204600F067F8022084F83D00AB
:101DF000206840F2FF730268C4F2000342F6004C10
:101E00009842C4F2010C15DCB0F1804F1AD040F2B8
:101E10000041C4F20001884214D0984218DCB0F1AD
:101E2000804F1DD040F20041C4F20001884217D01B
:101E30001AE000BF604505D040F60001C4F2000181
:101E40008842EAD1A16822F070020A439842E6DD96
:101E5000604505D040F60001C4F20001884203D17C
:101E6000216922F440720A43A36922F08001D4F868
:101E700004E0E268194360450160C262C0F828E0EE
:101E800002D16169CCF8301001214161002084F851
:101E9000461084F83E1084F83F1084F8401084F80F
:101EA000411084F8421084F8431084F8441084F8F8
:101EB000451084F83D1010BD80B584B0006840F630
:101EC0000001C4F20001884218D040F20041C4F27F
:101ED000000188422AD0B0F1804F0CD141F21C00A1
:101EE000C4F20200016841F001010160006800F0E5
:101EF00001000390039804B080BD00BF41F21C00B4
:101F0000C4F202000168002241F00401016000688F
:101F1000012100F00400019001981E20FFF7E0FB72
:101F20001E2004B0BDE88040FFF7C6BB41F21C0094
:101F3000C4F202000168002241F002010160006861
:101F4000012100F00200029002981D20FFF7C8FB5B
:101F50001D2004B0BDE88040FFF7AEBB90F83D10F7
:101F600001291CBF01207047022180F83D10006844
:101F700040F2FF71C4F20001884209DCB0F1804FE9
:101F800012D040F20041C4F2000188420CD012E0AD
:101F900042F60041C4F20101884205D040F600013A
:101FA000C4F20001884206D1816801F007010629C8
:101FB00004BF00207047016841F00101016000206A
:101FC000704700000146006841F21113C26822F018
:101FD0000102C260026A1A4204D00122002081F884
:101FE0003D207047026A40F244431A42F5D102682C
:101FF00022F0010202600122002081F83D2070479A
:1020000080B590F83C20012A4FF0020200F0BF801A
:1020100080F83D20D0F800C04FF67772DCF8083029
:1020200023EA0202CCF808200B683F2B1CDD5F2B53
:1020300020DD602B50D0B3F5005F6DD0702B40F0E9
:10204000A080D1E901E3C968DCF8082043EA0E0367
:1020500022F47F4243EA01211143CCF80810DCF856
:10206000081041F077018AE01F2B29DC63B3102BA5
:102070002AD086E0402B63D0502B40F08280D1F8EC
:1020800004E0C968DCF82030DCF8202022F00102EE
:10209000CCF82020DCF8182022F0F00242EA0111EE
:1020A00023F00A0242EA0E02CCF81810CCF82020E5
:1020B000DCF8081041F0570121F020015FE000BF7B
:1020C000202B01D0302B5CD1DCF8081021F07001FE
:1020D000194341F0070152E0D1F804E0C968DCF887
:1020E000203023F01003CCF82030DCF81830DCF876
:1020F000202023F4704322F0A00243EA013142EA97
:102100000E12CCF81810CCF82020DCF8081041F0A2
:10211000670121F0100132E0D1E901E3C968DCF880
:10212000082043EA0E0322F47F4243EA01211143CF
:10213000CCF80810DCF8081041F480411FE000BF23
:10214000D1F804E0C968DCF82030DCF8202022F067
:102150000102CCF82020DCF8182022F0F00242EA3C
:10216000011123F00A0242EA0E02CCF81810CCF852
:102170002020DCF8081041F0470121F03001CCF8B4
:1021800008100121002280F83D1080F83C20104604
:1021900080BD00007047000010B501680446086962
:1021A000800744BFC8685FEA807039D40869400777
:1021B00044BFC8685FEA40703ED40869000744BF66
:1021C000C8685FEA007045D40869C00644BFC868A3
:1021D0005FEAC0604AD40869C0071CBFC8685FEAEC
:1021E000C07051D10869000644BFC8685FEA00604A
:1021F00052D40869400644BFC8685FEA406053D4BF
:102200000869800646BFC8685FEA806010BD6FF04D
:10221000200220460A61BDE81040FFF797BD00BFCD
:102220006FF002000861012020778869800743D0A1
:102230002046FFF7AFFF45E06FF004000861022081
:102240002077886910F4407F40D02046FFF7A2FF36
:1022500042E000BF6FF00800086104202077C869E1
:1022600080073DD02046FFF795FF3FE06FF010005C
:10227000086108202077C86910F4407F3AD02046D2
:10228000FFF788FF3CE000BF6FF0010008612046C7
:1022900000F03EF82168A5E76FF080000861204655
:1022A000FFF752FD2168A4E76FF040000861204667
:1022B00000F054F82168A3E7204600F025F82046F6
:1022C00000F024F82168002020776FE7204600F016
:1022D0001BF8204600F01AF82168002020776CE7F0
:1022E000204600F011F8204600F010F82168002088
:1022F000207769E7204600F007F8204600F006F84E
:1023000021680020207766E77047000070470000D2
:1023100080B5006840F20041C4F20001884219D043
:1023200040F60001C4F20001884218BF80BD0120C0
:1023300000F022FB022000F01FFB032000F01CFB3A
:10234000042000F019FB052000F016FBBDE88040DA
:10235000FDF778BFBDE8804001F00CB87047000081
:102360007047000070470000B0B582B002680546B3
:102370001068D368546900F02F01202903F0200170
:1023800006D129B1284602B0BDE8B04000F07ABCC1
:102390005FEA007C1EBF04F0010E03F4907414EB9E
:1023A0000E0453D1296B012905D110F0100118BF7B
:1023B00013F0100136D1010622D513F080011FD091
:1023C00095F83D0021283FD1A868B0F5805F03D182
:1023D0002869002800F0F880286A411C29620078EA
:1023E0005060E88C01380104E8842DD1D06820F0D9
:1023F0008000D060D06840F04000D06002B0B0BD36
:10240000400621D513F040001ED0D068202120F0D6
:102410004000D060284685F83D1002B0BDE8B040CD
:1024200000F0A6BA00200190106801905068019059
:1024300001985069400611D4A88DE98DEB8D002BD1
:1024400018BF884240F0A68002B0B0BDC40718BFD4
:1024500013F480732CD1430730D436E0A86B0168A5
:102460004B689CB2002CEFD0A98D8C42ECD2EB854E
:102470008369202B17D0D16821F48071D160516914
:1024800021F001015161516921F040015161202188
:1024900085F83E1000212963D16821F01001D16038
:1024A000FEF728F8A98DE88D081A81B2284685E044
:1024B0002B6C43F001032B64430706D5BEF1000FDC
:1024C00003D02B6C43F002032B64830706D5BEF1C7
:1024D000000F03D02B6C43F004032B64BCF1000FFE
:1024E00009D541EA0E03B3FA83F35B0903D12B6CE0
:1024F00043F008032B642B6C002BA5D010F02000B8
:1025000018BF002903D0284600F0BCFB2A68506998
:10251000296C00F0400001F0080140182CD0D06870
:1025200020F49070D060506920F001005061286B59
:10253000012803D1D06820F01000D060202085F859
:102540003E0000202863506940061DD5506920F0E8
:1025500040005061A86BB8B142F67941C0F6000165
:102560004163FDF7EBFF00283FF46EAFA86B416BB2
:1025700002B0BDE8B04008472846FFF7F3FE002050
:10258000286402B0B0BD00BF284602B0BDE8B0402C
:10259000FFF7E8BED368401A23F49073D360536901
:1025A00081B223F001035361202385F83E300023DC
:1025B0002B63D368284623F01003D36002B0BDE834
:1025C000B040FFF7CDBE00BF286A30F8021B6FF3A2
:1025D0005F215160286204E7002804BF0120704792
:1025E00010B5044690F83D0028B9002084F83C005E
:1025F000204600F061F8242084F83D002068D4E9EA
:102600000212C36823F40053C360036923F44053E8
:102610001A430261D4E904231143C268194341F209
:102620000C639A431143C1604169A26921F440716E
:10263000114343F60002C4F201029042416103D00B
:10264000FFF76AF902E000BFFFF77AF96268192123
:1026500048439100B0FBF1F048F21F51C5F2EB1175
:10266000A0FB01235A094FF69C73C0F6FF7302FBCF
:102670000300322303EB0010A0FB0101F02303EA67
:102680005113206803EB0212C1F34311114481601E
:10269000016921F490410161416921F02A01416100
:1026A000C16841F40051C16000202021206484F8F9
:1026B0003D1084F83E1010BD70B586B0006844F23D
:1026C0000041C4F20001002688420596CDE9036668
:1026D000029641D043F60001C4F20101884271D153
:1026E00041F21800C4F20200016802AD41F48041D9
:1026F0000160016801F4804101910199016841F094
:10270000080101600068294600F008000190019866
:1027100040200290022003900320059040F6000024
:10272000C4F2010000F580642046FDF771FF8020AF
:1027300002900020CDE9030020462946FDF768FFFE
:102740000420C4F201000168252441F0E06141F059
:10275000040101602EE000BF41F21800C4F2020043
:10276000416840F6000441F4003141604168C4F220
:10277000010401F4003101910199016802AD41F0B9
:10278000040101600068294600F0040001900198EE
:102790000420029002200390032005902046FDF7BC
:1027A00037FF0820CDE90206204629460496FDF7AA
:1027B0002FFF2624204600210022FEF791FF20460D
:1027C000FEF77AFF06B070BD704700002DE9F041BA
:1027D000044690F83D0020280ED10D4600294FF008
:1027E000010000F08E801646002A08BFBDE8F08187
:1027F00094F83C00012803D10220BDE8F08100BF1D
:10280000012084F83C00002020642120984684F8B0
:102810003D00FEF711F8A684E684A1680646B1F5EE
:10282000805F03D12069002800F0A0802F4600259A
:10283000002084F83C00E08CE0B118F101001BD0CE
:10284000B8F1000F60D120680BE000BF35F8021B23
:1028500000276FF35F214160E18C0139E184E18C55
:1028600051B3016809066DD5002FEFD017F8011B91
:10287000F1E700BF20681FE0206802E00168090658
:1028800009D40168090606D4016809065CBF01681D
:102890005FEA0161F2D51FB117F8011B05E000BF27
:1028A00035F8021B00276FF35F214160E18C01398D
:1028B000E184E18C0029E4D1016849061DD4B8F116
:1028C000000F3FD018F101010ED10168490614D460
:1028D000016849065CBF01685FEA41610DD4016887
:1028E0004906F2D509E000BFFDF7A6FF811B20686D
:1028F000414527D800684006F6D5202084F83D00E1
:102900000020BDE8F08100BF206800BF0168090613
:1029100006D4FDF791FF811B20684145F6D911E0EF
:1029200017B117F8011B04E035F8021B00276FF3FD
:102930005F214160E18C0139E184E18C0029E5D11E
:10294000BAE700BFC16821F4D071C160416921F0CC
:1029500001014161202084F83D0084F83E00002000
:1029600084F83C000320BDE8F08100BF00275FE74A
:1029700070470000FEE7000070B540F60045C4F265
:1029800001050646284604210022FDF74FFF284690
:1029900002210022FDF74AFF284601210022FDF70F
:1029A00045FFA5F58064204680210022FDF73EFF0B
:1029B000204640210022FDF739FF701E042829D847
:1029C000DFE800F00444688CB00000BF2846042112
:1029D0000022FDF72BFF284602210022FDF726FFEB
:1029E000284601210022FDF721FF204680210022F8
:1029F000FDF71CFF204640210022FDF717FF284667
:102A000004210122FDF712FF0120BDE87040FDF70F
:102A10003DBC00BF284604210022FDF707FF2846E1
:102A200002210022FDF702FF284601210022FDF7C6
:102A3000FDFE204680210022FDF7F8FE20464021C1
:102A40000022BDE87040FDF7F1BE00BF284604211A
:102A50000022FDF7EBFE284602210022FDF7E6FEEC
:102A6000284601210022FDF7E1FE204680210022B8
:102A7000FDF7DCFE204640210022FDF7D7FE284668
:102A800002210122FDF7D2FE0220BDE87040FDF7D1
:102A9000FDBB00BF284604210022FDF7C7FE2846E3
:102AA00002210022FDF7C2FE284601210022FDF787
:102AB000BDFE204680210022FDF7B8FE20464021C1
:102AC0000022FDF7B3FE284601210122FDF7AEFEEC
:102AD0000320BDE87040FDF7D9BB00BF28460421A4
:102AE0000022FDF7A3FE284602210022FDF79EFEEC
:102AF000284601210022FDF799FE20468021002270
:102B0000FDF794FE204640210022FDF78FFE20466F
:102B100080210122FDF78AFE0420BDE87040FDF708
:102B2000B5BB00BF284604210022FDF77FFE2846E2
:102B300002210022FDF77AFE284601210022FDF73E
:102B400075FE204680210022FDF770FE20464021C0
:102B50000022FDF76BFE204640210122FDF766FEB4
:102B60000520BDE87040FDF791BB0000FEE70000C6
:102B7000FEE7000070470000B0B540F60044C4F224
:102B80000104204620210122FDF750FE40F29C1551
:102B9000C2F2000528680021416200BF416AC908ED
:102BA0007C290BD8416AC9087C2907D8416AC90821
:102BB0007C2903D8416AB1F57A7FEFD300214162C5
:102BC000416AC9087C290BD8416AC9087C2907D801
:102BD000416AC9087C2903D8416AB1F57A7FEFD3ED
:102BE00040F27C0040F20331C2F20000C2F2000168
:102BF00049226423FFF7EAFD28680021416200BFF3
:102C0000416AC9087C290BD8416AC9087C2907D8C0
:102C1000416AC9087C2903D8416AB1F57A7FEFD3AC
:102C200000214162416AC9087C290BD8416AC90860
:102C30007C2907D8416AC9087C2903D8416AB1F5C3
:102C40007A7FEFD3204620210022BDE8B040FDF777
:102C5000EDBD000070470000FEF7C6BC70470000E5
:102C600040F2E410C2F20000FFF796BA40F22C20C6
:102C7000C2F20000FFF790BA406A0021C185C1840A
:102C8000FFF770BB81B090F83E10222921D18368F4
:102C90000246B3F5805F09D152F8281F52F8183C5C
:102CA000002B3FD003685B680AE000BF52F8281F82
:102CB00013B90369002BF5D003685B6803F07F0349
:102CC0000B70116801311160C18D01390A04C18591
:102CD00002D001B0704700BF0168CA6822F020022C
:102CE000CA60CA6822F48072CA604A6922F001028E
:102CF0004A61202280F83E20026B012A1AD100226C
:102D00000263CB6823F01003CB600B68DB0605D5AC
:102D100000920A680092496800910099818D01B083
:102D2000FFF71EBB026852686FF35F2221F8022B87
:102D30008162C9E701B0FFF747BD000043F6040018
:102D4000C4F201000068C0B200F006B840F274207E
:102D5000C2F20000FFF708BB10B540F22441C4F2F4
:102D60000001002240F270040A60C2F200042278DE
:102D7000530701D410BD00BF40F2EE0EC2F2000EA8
:102D80009EF80030032B0FD8DFE803F0023A4656D6
:102D90001C2859D101208EF8000040F2BA20C2F25E
:102DA00000001C21017010BD40F2BA2CC2F2000CD0
:102DB0000CF80300581CC1B249298EF8000018BF56
:102DC00010BD9CF8471002F0FB0000234E29207034
:102DD0008EF800303CD19CF84810622938D1C2F3FB
:102DE000400102F00102D1424CD19CF804100029AC
:102DF00054D040F008002070BDE8104000F0BABA8E
:102E0000262821D102208EF8000040F2BA20C2F21A
:102E100000002621417010BD032101288EF800100A
:102E200022D140F2BA20C2F200000121817002F0EA
:102E3000FD00207010BD00BF04218EF80010B8B155
:102E400042F00100207010BD00208EF8000010BD7F
:102E500040F2EF00C2F20000017801310170BDE8DC
:102E6000104000F087BA00BF42F00200207010BD91
:102E700040F2BA20C2F200000021C17002F0FE0050
:102E8000207010BD40F2EF00C2F200004178013125
:102E90004170BDE8104000F06DBA00BF40F2C400C0
:102EA000C2F20000028840F20331C2F200014388FE
:102EB000CA808288A1F80930C3888A810289A1F872
:102EC0000F3043894A828289A1F81530C3890A8369
:102ED000028AA1F81B30438ACA83828AA1F8213072
:102EE000C38A8A84028BA1F82730438B4A85828B60
:102EF000A1F82D30C38B0A86028CA1F83330438CA5
:102F0000CA86828CC08CA1F839308A87A1F83F002C
:102F1000FFF732FEBDE8104000F02CBAFEE70000DB
:102F200041F21400C4F20200016841F04001016066
:102F300043F20800C4F20200016841F0010101609F
:102F40007047000090B0FEF75DFB40F2033842F29C
:102F50001C60C2F20008C6F20040C8F8000046F249
:102F60004E20A8F8470000240120CDE90B44CDE90C
:102F7000094406904FF480310A90022506A8CDE955
:102F80000714CDE90D510F94FEF7EEFC20B1EFF3DD
:102F9000108072B6FEE700BF0F20CDE9000580204B
:102FA00002904FF48060CDE9030468460021FEF7EB
:102FB000D3FB28B1EFF3108072B600BFFEE700BF6D
:102FC00041F21800C4F20200016840F6000A41F024
:102FD000200101600168C4F2010A01F0200106919C
:102FE00006990168002241F0040101600168F2269F
:102FF00001F00401069106990168002441F00801DE
:1030000001600068F22100F0080006900698504622
:10301000FDF70CFC0AF5806528462F2100224FF0B1
:103020002F0BFDF703FC069606AE01274FF00209B1
:1030300050463146CDE90774CDF82490FDF7E8FA03
:103040002846314648F2A066CDE906B7CDE90849E1
:10305000C0F20106FDF7DCFA40F2F400AAF53441B3
:10306000C2F200004FF48045C0E90016C0E90244F6
:10307000C0E90454C0E906440462FDF7E3FB28B14B
:10308000EFF3108072B600BFFEE700BF40F24810B9
:10309000AAF53041C2F20000C0E90016C0E90244BE
:1030A000C0E90454C0E906440462FDF7CBFB28B133
:1030B000EFF3108072B600BFFEE700BF40F2700968
:1030C000C2F200090AF54051484640F80C1F4FF47F
:1030D000E13500240C26C0E90154C0E90344C0E9ED
:1030E0000564C461FFF778FA20B1EFF3108072B67F
:1030F000FEE700BF40F27420AAF54441C2F200008E
:10310000C0E90015C0E90244C0E90446C0E906442C
:10311000FFF762FA20B1EFF3108072B6FEE700BF4E
:1031200040F2E4100021AAF58232C2F200004FF40E
:10313000E15342F20F770991CDE90711CDE9001172
:10314000C0E90023C0E9021701618161FEF73EFE7C
:1031500020B1EFF3108072B6FEE700BF4FF480504D
:10316000069040F2E410C2F2000006A9FEF748FF04
:1031700020B1EFF3108072B6FEE700BF40F2E4101A
:10318000C2F200006946FEF7E3FD28B1EFF31080BC
:1031900072B600BFFEE700BF40F22C200021AAF566
:1031A0008032C2F200004FF4E15342F210770991ED
:1031B000CDE90711CDE90011C0E90023C0E90217EC
:1031C00001618161FEF702FE20B1EFF3108072B65B
:1031D000FEE700BF4FF48050069040F22C20C2F270
:1031E000000006A9FEF70CFF20B1EFF3108072B6C5
:1031F000FEE700BF40F22C20C2F200006946FEF755
:10320000A7FD18B1EFF3108072B6FEE743F200019C
:10321000C4F20201484640F8041FFDF73BF918B11B
:10322000EFF3108072B6FEE740F29C100021C2F26C
:1032300000004FF0804248234FF6E8570991CDE94E
:103240000711CDE90011C0E90023C0E902170161AF
:103250008161FEF7BBFD18B1EFF3108072B6FEE797
:103260004FF48050069040F29C10C2F2000006A974
:10327000FEF7C6FE20B1EFF3108072B6FEE700BF86
:1032800040F29C14C2F2000469462046FEF760FD3D
:1032900020B1EFF3108072B6FEE700BF2046FEF7C4
:1032A0005DFE2068016841F001010160012088F89D
:1032B0000500022088F80800032088F80B0004208D
:1032C00088F80E00052088F81100062088F8140000
:1032D000072088F81700082088F81A00092088F8C5
:1032E0001D000A2088F820000B2088F823000C20FD
:1032F00088F826000D2088F829000E2088F82C0078
:103300000F2088F82F00102088F83200112088F84C
:103310003500122088F83800132088F83B0014206C
:1033200088F83E00152088F84100162088F84400EF
:10333000FFF7F6FDD9F80C00C16841F02001C1602B
:103340000020C9F8000000F015F8FCF77BFF012011
:10335000FFF712FB0220FFF70FFB0320FFF70CFB28
:103360000420FFF709FB0520FFF706FBFCF76AFFC7
:10337000EBE7000080B540F27002C2F2000240F2BA
:10338000EE001378C2F200000021017043F0040047
:10339000107040F2E410C2F20000FEF713FE40F697
:1033A0000040C4F2010020210022BDE88040FDF76A
:1033B0003DBA010200000000000000000102030409
:1033C00006070809000000000102030402030405C7
:1033D000060708090A0B0C0D0E0F10100034000828
:1033E0000000002010000000280100081034000830
:1033F0001000002040090000440100080000000007
:1034000001000000100000000024F4000000000093
:04000005080000ED02
:00000001FF
