:020000040800F2
:1000000020090020890100080D1E0008051E0008B7
:10001000091E000831030008092100080000000043
:100020000000000000000000000000002D1E00087D
:100030003503000800000000291E0008311E0008DA
:10004000A3010008A3010008A3010008A301000800
:10005000A3010008A3010008A3010008A3010008F0
:10006000A3010008A3010008A3010008A3010008E0
:10007000A3010008A3010008A3010008A3010008D0
:10008000A3010008A3010008A3010008A3010008C0
:10009000A3010008A3010008A3010008A3010008B0
:1000A000A3010008A3010008A3010008A3010008A0
:1000B000391E0008451E0008A3010008A30100081E
:1000C000A3010008A3010008A3010008A301000880
:1000D000A3010008151F0008251F0008311F000894
:1000E000A3010008A3010008A301000800F002F822
:1000F00000F03AF80AA090E8000C82448344AAF188
:100100000107DA4501D100F02FF8AFF2090EBAE885
:100110000F0013F0010F18BFFB1A43F0010318473B
:10012000BC270000DC270000103A24BF78C878C143
:10013000FAD8520724BF30C830C144BF04680C60ED
:10014000704700000023002400250026103A28BF35
:1001500078C1FBD8520728BF30C148BF0B60704739
:100160001FB51FBD10B510BD00F0A8F81146FFF770
:10017000F7FF02F071F800F0C6F803B4FFF7F2FFE2
:1001800003BC00F0CDF8000009488047094800474B
:10019000FEE7FEE7FEE7FEE7FEE7FEE7FEE7FEE737
:1001A000FEE7FEE704480549054A064B7047000094
:1001B000351E0008ED000008200300202009002063
:1001C0002005002020050020032A40F2308010F096
:1001D000030C00F0158011F8013BBCF1020F6244E2
:1001E00098BF11F801CB00F8013B38BF11F8013B73
:1001F000A2F1040298BF00F801CB38BF00F8013B20
:1002000011F0030300F02880083AC0F0088051F88C
:10021000043B083A51F804CBA0E80810F5E7121D9A
:100220005CBF51F8043B40F8043BAFF30080D207B9
:1002300024BF11F8013B11F801CB48BF11F8012B85
:1002400024BF00F8013B00F801CB48BF00F8012BA8
:10025000704770477047704710B5203AC0F00B8068
:10026000B1E81850A0E81850B1E81850A0E81850AC
:10027000203ABFF4F5AF5FEA027C24BFB1E8185022
:10028000A0E8185044BF18C918C0BDE810405FEA84
:10029000827C24BF51F8043B40F8043B08BF704700
:1002A000D20728BF31F8023B48BF11F8012B28BF05
:1002B00020F8023B48BF00F8012B7047754600F05C
:1002C0002BF8AE4605006946534620F007008546E8
:1002D00018B020B5FFF766FFBDE820404FF00006DC
:1002E0004FF000074FF000084FF0000BAC46ACE8B1
:1002F000C009ACE8C009ACE8C009ACE8C00921F00D
:1003000007018D46704710B50446AFF300802046C4
:10031000BDE81040FFF731BF0048704710000020D3
:1003200001491820ABBEFEE726000200704700001E
:10033000FEE7000070470000B0B5864602208EF848
:100340000500DEF80000836843F00103836042B1DA
:10035000531E032B02F0030C08D20022BCF1000F45
:100360001AD1006801218EF80510B0BD22F00302F9
:10037000A1F110035442002253F8105F043A0560C3
:100380005D68944205609D680560DD680560F3D195
:100390005242BCF1000FE4D051F82230BCF1010F01
:1003A0000360DED001EB82014A68BCF1020F0260FB
:1003B0001CBF89680160006801218EF80510B0BD7E
:1003C000002804BF0120704710B50446407918B1D9
:1003D00001206071002010BD00202071204600F037
:1003E00005F801206071002010BD000081B0006898
:1003F00043F20001C4F20201884201D001B070470B
:1004000041F21400C4F20200016841F040010160B1
:10041000006800F040000090009801B070470000B4
:10042000014690F82100022816D10868D1E90FC3CF
:10043000026822F00E020260026822F001020260ED
:10044000012000FA03F2CCF8042081F821000020FA
:10045000002281F8202070470420886301200022B8
:1004600081F820207047000080B590F82110022903
:1004700024D10268116821F00E0111602F21136848
:10048000C4F202018A4240F20401C4F2020123F0E4
:100490000103136016DD3023C4F202039A421DD01B
:1004A0004423C4F202039A421CD05823C4F202032C
:1004B0009A421DD14FF4803322E000BF04218163B2
:1004C000012080BD0823C4F202039A420ED01C23EF
:1004D000C4F202039A420BD1102311E04FF480734F
:1004E0000EE000BF4FF480530AE000BF012307E095
:1004F00001F1680C4FF08073624508BF4FF4801320
:100500000B60416B4FF48072028401B18847002078
:1005100080BD0000806B7047B0B5044600F024F940
:10052000054640F20000C2F200000078611C18BFCE
:10053000044400BF00F018F9401BA042FAD3B0BD3C
:100540002DE9F04F82B00E68002E00F0038140F2DA
:100550000C4C41F200424FF6FF7EC4F2010CC4F293
:100560000102042700240123C1F2100E4FF0000AFB
:100570004FF00009904208BF0327009745E000BFF5
:10058000012704F00C030F229A402BEA020207FA1B
:1005900003F34FEA9A051A4346F82520D1F804B030
:1005A00040F20045C4F201055FEACB322A6854BF2D
:1005B00022EA080242EA08022A606A685FEA8B338C
:1005C00054BF22EA080242EA08026A605FEACB23CB
:1005D000AA6854BF22EA080242EA08025FEA8B23B3
:1005E000AA60DCF800204FF0010354BF22EA0802A1
:1005F00042EA0802CCF800200E680AF1010A36FA35
:100600000AF204F1040400F0A58003FA0AF816EADD
:10061000080FF1D04E68764512DC122E56D8DFE86E
:1006200006F0350B454955555555555555555555B4
:100630005555554D510000BFD1F80C9046E000BF14
:100640004FF6FF72C1F2210296420FDC0022C1F286
:10065000110296421AD00022C1F21202964215D01F
:100660000022C1F22102964210D02FE00022C1F2F6
:10067000220296420AD00022C1F23102964205D0EF
:100680000022C1F23202964220D100BF8A684AB1EC
:10069000012A14BFC0F81480C0F810804FF0080978
:1006A00014E000BF4FF0040910E000BFCA6802F177
:1006B00008090BE04FF0000908E000BFCA6802F12A
:1006C000040903E0CA6802F10C0900BF224606468D
:1006D000BAF1080F24BF203A043637680F25954039
:1006E00027EA050509FA02F22A433260CA79D206DE
:1006F0007FF582AF41F21803C4F202031A6842F098
:1007000001021A601A6802F001020192019A40F295
:100710000042C4F20102A2F57E762AF0030256F8E6
:1007200002B040F60002C4F20102904210D040F63E
:100730000042C4F2010290423FF422AF41F20002B3
:10074000C4F20102009F904208BF022719E700BFD0
:10075000002716E702B0BDE8F08F0000002A08BFAE
:10076000090401617047000040F21C30C2F2000031
:100770000068704770B5B8B3044690F83D0028B9DA
:10078000002084F83C00204600F0B0F8242084F8D3
:100790003D002068016821F001010160016841F419
:1007A00000410160016821F40041016000F068FA35
:1007B00048F28041C0F21E0140F60013D4F804E074
:1007C00088424FF00001C0F23D0348F2A16C4FF0A7
:1007D000000238BF01219842C0F2010C38BF01224B
:1007E000E64538BF0A460AB1012070BD4DF6836167
:1007F000C4F21B31A0FB01122168950C4B684FF429
:10080000967623F03F0343EA9243754344F6D3566A
:100810004B60C1F262060B6AA5FB0656B50923F0D0
:100820003F03E64538BF950C6A1C1A430A62CA6941
:1008300048F2A0664CF6FF73C0F20106B64522EA04
:1008400003020BD801384FEA4E03B0FBF3F001303E
:100850006FF31F30042898BF04201EE0A3680138FE
:1008600063B119230EFB03F3B0FBF3F001306FF318
:100870001F3078B100F5804008E000BF0EEB4E035A
:10088000B0FBF3F001306FF31F3028B100F50040EA
:1008900003E000BF012000E001201043C8610868A8
:1008A000D4E9072320F0C00010431843086088688B
:1008B00048F2FF3204F10C0690434CCE184310432B
:1008C000A5698860C86820F0FF0030432843C860ED
:1008D000086840F00100086000202021206484F8AE
:1008E0003D10206384F83E0070BD000010B586B056
:1008F00045F200410068C4F20001002288420492DF
:1009000002D006B010BD00BF41F21804C4F20204C8
:10091000206840F008002060206800F00800019086
:100920000198C0200290122003900320059001F549
:10093000384002A9FFF704FE606840F400106060D0
:10094000606800F400100190019806B010BD00002E
:1009500040F2000040F21C31C2F20000C2F200017D
:1009600000780A68104408607047000080B542F2C1
:100970000000C4F20200016841F010010160032090
:1009800000F08EF80F2000F005F800F027F80020A6
:1009900080BD000070B540F20006C2F2000640F2D1
:1009A00008013278C2F200014FF47A730968B3FB90
:1009B000F2F20446B1FBF2F1084600F063FB0F2CA3
:1009C0004FF0010508D838B94FF0FF30214600221A
:1009D000002500F039F87460284670BD82B041F2FD
:1009E0001800C4F202000168022241F00101016016
:1009F000016801F0010101910199416841F08051C4
:100A00004160406800F08050009000980420C4F2DB
:100A10000100016862F31A61016002B070470000D2
:100A2000002848BF7047C1B200F01F00012202FA3F
:100A300000F04EF20012CEF2000242EAD10121F0A3
:100A4000030108607047000010B54EF60C5CCEF252
:100A5000000CDCF80030C3F3022E8EF00704042CE7
:100A600028BF0424BEF103034FF0FF3E0EFA04F446
:100A700038BF0023A14399400EFA03F39A43114370
:100A800000F00F0200F160430901043A03F56443EA
:100A90006244002848BF02F10C03197010BD000029
:100AA0004EF60C51CEF200010A684FF6FF031A40D1
:100AB00060F30A2242F0806040F0FD7008607047E9
:100AC0002DE9F04381B0002800F0858042F2000853
:100AD000C4F202080446D8F800000D4600F00700F2
:100AE00088420CD2D8F8000020F007002843C8F84C
:100AF0000000D8F8000000F00700A8426BD1206881
:100B000041F204098107C4F2020917D5410705D54E
:100B1000D9F8001041F4E061C9F80010010705D5CB
:100B2000D9F8001041F46051C9F80010D9F800104C
:100B3000A26821F0F0011143C9F80010C00741D1AB
:100B4000D8F8000000F00700A8420CD9D8F800003F
:100B500020F007002843C8F80000D8F8000000F093
:100B60000700A84237D12068410707D5D9F80010FF
:100B7000E26821F4E0611143C9F80010000708D5CC
:100B8000D9F80000216920F4605040EAC100C9F89A
:100B90000000D9F8002002F00C00082841F20020E3
:100BA000C0F27A0050D142F6CA03C2F38341C0F6C4
:100BB0000003595CD2033BD440F60010C0F23D0064
:100BC000484341E0606802280AD001282AD159F838
:100BD000041C890308D4012001B0BDE8F08300BFE4
:100BE00059F8041C8901F6D5D9F8001021F0030149
:100BF0000843C9F80000FFF7B7FD064641F2883701
:100C0000D9F80000616800F00C00B0EB810F97D0BC
:100C1000FFF7AAFD801BB842F2D9032001B0BDE85E
:100C2000F08300BF59F8041C8907D4D5DCE700BF66
:100C3000D9F8002042F69203C2F34042C0F6000306
:100C40009A5C4843B0FBF2F0D9F8001042F69402E7
:100C5000C1F30311C0F60002515C40F2080220FA11
:100C600001F140F20400C2F200000068C2F200028A
:100C70001160FFF78FFE002001B0BDE8F083000097
:100C800040F2080041F20401C2F20000C4F2020185
:100C90000068096842F6A402C1F30221C0F600020E
:100CA000515CC8407047000040F2080041F2040166
:100CB000C2F20000C4F202010068096842F6A40210
:100CC000C1F3C221C0F60002515CC8407047000069
:100CD0002DE9F04182B0002868D00446007841F246
:100CE0000006C007C4F2020625D0706800F00C00B0
:100CF00004281BD0706800F00C00082802D170682E
:100D0000C00313D46068002800F06881B0F5A02FFC
:100D100000F07C81B0F5803F00F07C81306820F4E9
:100D200080303060306820F4802076E130688003C5
:100D300001D56068D0B32078800718D5706810F0AE
:100D40000C0F07D0706800F00C0008286ED1706896
:100D5000C0036BD43068800702D52069012825D1F3
:100D60003068616920F0F80040EAC1003060207806
:100D700000071FD42078400732D4E56995B1706828
:100D800000F00C00082840F08F80012D0ED0706814
:100D9000216A00F480328A4208D1616A00F470103E
:100DA000884203D1002002B0BDE8F081012002B0EA
:100DB000BDE8F081A069002862D00020C4F2422082
:100DC0000121C0F88014FFF7CFFC0546706A800748
:100DD00000F18C80FFF7C8FC401B0228F6D92AE1FD
:100DE000F06910F0805808D1F06940F08050F0614F
:100DF000F06900F080500090009847F20007C4F2BC
:100E000000073868C00529D4386840F4807038601D
:100E1000FFF7AAFC054600BF3868C0051ED4FFF7DF
:100E2000A3FC401B6428F7D905E100BF2069002816
:100E300040F20000C4F2422000F0828001210160F3
:100E4000FFF792FC054600BF306880073FF588AF8A
:100E5000FFF78AFC401B0228F6D9ECE0E068002886
:100E600000F08080052800F09780012800F098802D
:100E7000306A20F001003062306A20F0040092E015
:100E80000020C4F242200021C0F88014FFF76CFC5F
:100E9000054600BF706A80077FF56CAFFFF764FC02
:100EA000401B0228F6D9C6E00027C4F242270020E2
:100EB0003866FFF759FC022D05460BD130688001DA
:100EC00040F1BE80FFF750FC401B02284FF00300AA
:100ED000F4D968E7306880017FF564AFFFF744FC20
:100EE000401B02284FF00300F4D95CE740F20800F1
:100EF000C2F20000006844F6D351C1F26201A0FBC7
:100F00000101480A019000BF00BF0198411E00285E
:100F100001913FF42FAF00BF0198411E00280191BD
:100F20003FF428AF00BF0198411E002801913FF413
:100F300021AF00BF0198411E00280191E4D119E7BB
:100F400000210160FFF710FC054600BF30688007F4
:100F50007FF50DAFFFF708FC401B02284FF00300A0
:100F6000F4D920E7306A20F001003062306A20F0C6
:100F700004003062FFF7F8FB054641F2883700BFF6
:100F8000306A800720D5FFF7EFFB401BB8424FF0D7
:100F90000300F5D907E700BF306A40F00400306273
:100FA000306A40F001003062FFF7DEFB054641F297
:100FB000883700BF306A800706D4FFF7D5FB401B97
:100FC000B842F7D937E000BFB8F1000F7FF4D5AED3
:100FD000F06920F08050F061CFE600BF306820F467
:100FE00080303060306820F480203060FFF7BCFB38
:100FF000054600BF306880037FF59DAEFFF7B4FB68
:10100000401B64284FF00300F4D9CCE6306840F46C
:1010100080203060306840F480303060FFF7A4FBFF
:10102000054600BF306880033FF585AEFFF79CFBA7
:10103000401B6428F6D9032002B0BDE8F08100BF50
:10104000206AB0F5803F05D17168A26821F40031B3
:10105000114371607168626A21F47411114308438D
:10106000706001203866FFF77FFB0446306880011E
:101070003FF598AEFFF778FB001B02284FF0030006
:10108000F4D990E6411E0020B0EB116F1CBF012087
:1010900070474EF21002CEF2000251604EF623511C
:1010A000CEF20001F0230B700721906011607047B1
:1010B000704700007047000010B590F83C20012AEE
:1010C0004FF0020233D080F83D200268D2F804E0ED
:1010D000D2F808C00C682EF07003234340F2FF746E
:1010E000C4F20004A24253600ADCB2F1804F13D074
:1010F00040F20043C4F200039A420DD011E000BF59
:1011000042F60043C4F201039A4205D040F60003C0
:10111000C4F200039A4204D149682CF080031943B9
:1011200091600121002280F83D1080F83C2010469B
:1011300010BD0000002804BF0120704710B5044610
:1011400090F83D0028B9002084F83C00204600F0CB
:1011500067F8022084F83D00206840F2FF730268BF
:10116000C4F2000342F6004C9842C4F2010C15DCB4
:10117000B0F1804F1AD040F20041C4F20001884221
:1011800014D0984218DCB0F1804F1DD040F20041DD
:10119000C4F20001884217D01AE000BF604505D0B4
:1011A00040F60001C4F200018842EAD1A16822F0B1
:1011B00070020A439842E6DD604505D040F6000122
:1011C000C4F20001884203D1216922F440720A432B
:1011D000A36922F08001D4F804E0E2681943604575
:1011E0000160C262C0F828E002D16169CCF8301019
:1011F00001214161002084F8461084F83E1084F8F3
:101200003F1084F8401084F8411084F8421084F8AC
:10121000431084F8441084F8451084F83D1010BD44
:1012200010B582B0006840F20041C4F2000188426B
:1012300012D0B0F1804F29D141F21C00C4F202005B
:1012400001681C2441F001010160006800F0010008
:10125000019001980EE000BF41F21C00C4F20200B0
:1012600001681D2441F002010160006800F00200E5
:1012700000900098204600210022FFF7E5FB204661
:1012800002B0BDE81040FFF7CBBB00BF02B010BDFD
:1012900090F83D1001291CBF01207047022180F801
:1012A0003D10006840F2FF71C4F20001884209DC81
:1012B000B0F1804F12D040F20041C4F200018842E8
:1012C0000CD012E042F60041C4F20101884205D080
:1012D00040F60001C4F20001884206D1816801F0A5
:1012E0000701062904BF00207047016841F0010191
:1012F000016000207047000090F83D1001291CBFDC
:1013000001207047022180F83D10006840F2FF7212
:10131000C168C4F20002904241F00101C16009DCE1
:10132000B0F1804F12D040F20041C4F20001884277
:101330000CD012E042F60041C4F20101884205D00F
:1013400040F60001C4F20001884206D1816801F034
:101350000701062904BF00207047016841F0010120
:1013600001600020704700000146006841F211133F
:10137000C26822F00102C260026A1A4204D001224D
:10138000002081F83D207047026A40F244431A422F
:10139000F5D1026822F0010202600122002081F8EA
:1013A0003D20704780B590F83C20012A4FF00202A2
:1013B00000F0BF8080F83D20D0F800C04FF6777273
:1013C000DCF8083023EA0202CCF808200B683F2B37
:1013D0001CDD5F2B20DD602B50D0B3F5005F6DD09E
:1013E000702B40F0A080D1E901E3C968DCF8082047
:1013F00043EA0E0322F47F4243EA01211143CCF871
:101400000810DCF8081041F077018AE01F2B29DC76
:1014100063B3102B2AD086E0402B63D0502B40F0D2
:101420008280D1F804E0C968DCF82030DCF82020A4
:1014300022F00102CCF82020DCF8182022F0F00283
:1014400042EA011123F00A0242EA0E02CCF8181017
:10145000CCF82020DCF8081041F0570121F02001E1
:101460005FE000BF202B01D0302B5CD1DCF80810EE
:1014700021F07001194341F0070152E0D1F804E076
:10148000C968DCF8203023F01003CCF82030DCF8F9
:101490001830DCF8202023F4704322F0A00243EA45
:1014A000013142EA0E12CCF81810CCF82020DCF8FA
:1014B000081041F0670121F0100132E0D1E901E3A9
:1014C000C968DCF8082043EA0E0322F47F4243EAAD
:1014D00001211143CCF80810DCF8081041F48041D8
:1014E0001FE000BFD1F804E0C968DCF82030DCF868
:1014F000202022F00102CCF82020DCF8182022F075
:10150000F00242EA011123F00A0242EA0E02CCF88C
:101510001810CCF82020DCF8081041F0470121F029
:101520003001CCF808100121002280F83D1080F82D
:101530003C20104680BD00007047000010B50168D7
:1015400004460869800744BFC8685FEA807039D4E0
:101550000869400744BFC8685FEA40703ED4086924
:10156000000744BFC8685FEA007045D40869C00638
:1015700044BFC8685FEAC0604AD40869C0071CBF9E
:10158000C8685FEAC07051D10869000644BFC868E6
:101590005FEA006052D40869400644BFC8685FEA49
:1015A000406053D40869800646BFC8685FEA80601F
:1015B00010BD6FF0200220460A61BDE81040FFF721
:1015C00079BD00BF6FF002000861012020778869B3
:1015D000800743D02046FFF7AFFF45E06FF00400DF
:1015E000086102202077886910F4407F40D02046AF
:1015F000FFF7A2FF42E000BF6FF00800086104207F
:101600002077C86980073DD02046FFF795FF3FE06F
:101610006FF01000086108202077C86910F4407F3F
:101620003AD02046FFF788FF3CE000BF6FF0010092
:101630000861204600F03EF82168A5E76FF08000C1
:1016400008612046FFF734FD2168A4E76FF04000F1
:101650000861204600F05EF82168A3E7204600F00C
:1016600025F8204600F024F82168002020776FE755
:10167000204600F01BF8204600F01AF821680020F0
:1016800020776CE7204600F011F8204600F010F8B3
:1016900021680020207769E7204600F007F82046FF
:1016A00000F006F821680020207766E77047000008
:1016B0007047000010B5006840F20041C4F200011C
:1016C000884218BF10BD40F26410C2F20000FFF75C
:1016D0004BFE40F27004C2F2000404F1100000F06E
:1016E0001DF844F60400C4F2000000682069C168D7
:1016F00041F02001C16040F27D212078C2F200015A
:10170000CA7880F004002070501CC870BDE81040FA
:1017100000F03ABF704700007047000010B5044663
:101720000068C16821F4F071C160416921F00101D4
:101730004161216B012903D1C16821F01001C16011
:10174000416909060FD5416921F080014161606B53
:1017500048B100214163FEF763FE20B1606BFEF7E4
:10176000D9FE202813D020684169490614D5416963
:1017700021F040014161A06B70B100214163FEF78F
:101780004FFE48B1A06BFEF7C5FE202804D1102003
:101790002064032010BD00BF00202021E084E085EC
:1017A000206484F83E1084F83D10206310BD0000D2
:1017B00070470000B0B582B0026805461068D36873
:1017C000546900F02F01202903F0200106D129B12E
:1017D000284602B0BDE8B04000F040BB5FEA007CA4
:1017E0001EBF04F0010E03F4907414EB0E0453D1E9
:1017F000296B012905D110F0100118BF13F0100159
:1018000036D1010622D513F080011FD095F83D0096
:1018100021283FD1A868B0F5805F03D1286900284E
:1018200000F0F880286A411C296200785060E88C3A
:1018300001380104E8842DD1D06820F08000D06008
:10184000D06840F04000D06002B0B0BD400621D565
:1018500013F040001ED0D068202120F04000D0605E
:10186000284685F83D1002B0BDE8B04000F0C8BA87
:101870000020019010680190506801900198506913
:10188000400611D4A88DE98DEB8D002B18BF88423E
:1018900040F0A68002B0B0BDC40718BF13F4807337
:1018A0002CD1430730D436E0A86B01684B689CB25A
:1018B000002CEFD0A98D8C42ECD2EB858369202BD4
:1018C00017D0D16821F48071D160516921F00101F4
:1018D0005161516921F040015161202185F83E108C
:1018E00000212963D16821F01001D160FEF798FD35
:1018F000A98DE88D081A81B2284685E02B6C43F04B
:1019000001032B64430706D5BEF1000F03D02B6CF7
:1019100043F002032B64830706D5BEF1000F03D00A
:101920002B6C43F004032B64BCF1000F09D541EA92
:101930000E03B3FA83F35B0903D12B6C43F0080366
:101940002B642B6C002BA5D010F0200018BF0029B1
:1019500003D0284600F082FA2A685069296C00F00A
:10196000400001F0080140182CD0D06820F490709D
:10197000D060506920F001005061286B012803D12C
:10198000D06820F01000D060202085F83E000020B4
:101990002863506940061DD5506920F04000506111
:1019A000A86BB8B141F65161C0F600014163FEF782
:1019B0005BFD00283FF46EAFA86B416B02B0BDE841
:1019C000B04008472846FFF7F3FE0020286402B025
:1019D000B0BD00BF284602B0BDE8B040FFF7E8BE8A
:1019E000D368401A23F49073D360536981B223F013
:1019F00001035361202385F83E3000232B63D36815
:101A0000284623F01003D36002B0BDE8B040FFF7D2
:101A100083BE00BF286A30F8021B6FF35F2151605C
:101A2000286204E7002804BF0120704710B504466F
:101A300090F83D0028B9002084F83C00204600F0D2
:101A400061F8242084F83D002068D4E90212C368BC
:101A500023F40053C360036923F440531A43026123
:101A6000D4E904231143C268194341F20C639A4339
:101A70001143C1604169A26921F44071114343F6E9
:101A80000002C4F201029042416103D0FFF7F8F86E
:101A900002E000BFFFF708F962681921484391008E
:101AA000B0FBF1F048F21F51C5F2EB11A0FB01238E
:101AB0005A094FF69C73C0F6FF7302FB03003223F2
:101AC00003EB0010A0FB0101F02303EA511320688F
:101AD00003EB0212C1F3431111448160016921F447
:101AE00090410161416921F02A014161C16841F4DD
:101AF0000051C16000202021206484F83D1084F84A
:101B00003E1010BDB0B586B0006844F20041C4F28A
:101B1000000188424FF00001CDE90411CDE9021126
:101B200036D044F60001C4F20001884258D043F692
:101B30000001C4F20101884240F08C8041F218009B
:101B4000C4F20200016840F6000441F480410160E3
:101B50000168C4F2010401F4804101910199016816
:101B600041F004010160006802A900F00400019046
:101B700001984FF40070029002200390032005901A
:101B80002046FEF7DDFC4FF480600290252552E0F0
:101B900041F21800C4F20200416840F6000441F42A
:101BA000003141604168C4F2010401F40031019147
:101BB0000199016841F004010160006802A900F088
:101BC0000400019001980420029002200390032059
:101BD00005902046FEF7B4FC0820029026252AE056
:101BE00041F21800C4F20200416841F480214160D2
:101BF000416801F4802101910199016841F00801D7
:101C00000160006802A900F00800019001984FF4FB
:101C100080600290022003900320059040F60000AF
:101C2000C4F2010000F580642046FEF789FC4FF401
:101C30000060272502900020CDE9030002A920467C
:101C4000FEF77EFC284600210022FEF7FDFE284616
:101C5000FEF7E6FE06B0B0BD704700002DE9F0418A
:101C6000044690F83D0020280ED10D4600294FF083
:101C7000010000F08E801646002A08BFBDE8F08102
:101C800094F83C00012803D10220BDE8F08100BF98
:101C9000012084F83C00002020642120984684F82C
:101CA0003D00FEF761FDA684E684A1680646B1F515
:101CB000805F03D12069002800F0A0802F46002516
:101CC000002084F83C00E08CE0B118F101001BD04A
:101CD000B8F1000F60D120680BE000BF35F8021B9F
:101CE00000276FF35F214160E18C0139E184E18CD1
:101CF00051B3016809066DD5002FEFD017F8011B0D
:101D0000F1E700BF20681FE0206802E001680906D3
:101D100009D40168090606D4016809065CBF016898
:101D20005FEA0161F2D51FB117F8011B05E000BFA2
:101D300035F8021B00276FF35F214160E18C013908
:101D4000E184E18C0029E4D1016849061DD4B8F191
:101D5000000F3FD018F101010ED10168490614D4DB
:101D6000016849065CBF01685FEA41610DD4016802
:101D70004906F2D509E000BFFEF7F6FC811B20689A
:101D8000414527D800684006F6D5202084F83D005C
:101D90000020BDE8F08100BF206800BF016809068F
:101DA00006D4FEF7E1FC811B20684145F6D911E01D
:101DB00017B117F8011B04E035F8021B00276FF379
:101DC0005F214160E18C0139E184E18C0029E5D19A
:101DD000BAE700BFC16821F4D071C160416921F048
:101DE00001014161202084F83D0084F83E0000207C
:101DF00084F83C000320BDE8F08100BF00275FE7C6
:101E000070470000FEE70000FEE70000FEE700006C
:101E100040F2F01040F23421C2F20000C2F20001A0
:101E200049226423FFF71ABF704700007047000083
:101E3000FEF78EBD7047000040F21C10C2F2000099
:101E4000FFF77CBB40F26410C2F20000FFF776BBE4
:101E5000406A0021C185C184FFF7AABC81B090F817
:101E60003E10222921D183680246B3F5805F09D153
:101E700052F8281F52F8183C002B3FD003685B68CB
:101E80000AE000BF52F8281F13B90369002BF5D0F0
:101E900003685B6803F07F030B7011680131116008
:101EA000C18D01390A04C18502D001B0704700BF5D
:101EB0000168CA6822F02002CA60CA6822F48072EF
:101EC000CA604A6922F001024A61202280F83E205D
:101ED000026B012A1AD100220263CB6823F010039F
:101EE000CB600B68DB0605D500920A680092496852
:101EF00000910099818D01B0FFF70EBC0268526815
:101F00006FF35F2221F8022B8162C9E701B0FFF76E
:101F1000A3BE000043F60400C4F201000068C0B292
:101F200000F00EB840F2F010C2F20000FFF742BC21
:101F300044F60400C4F200000068C0B2AFF30080B1
:101F400070B540F22441C4F20001002240F2740551
:101F50000A60C2F2000529780A0701D470BD00BFEB
:101F600040F2C402C2F200021378032B16D8DFE855
:101F700003F003535F6700BF1C2877D1012040F2B4
:101F8000CC211070C2F200011C2240F26410C2F297
:101F900000000A70BDE87040FFF7AEB940F2CC26F1
:101FA000C2F20006F054581CC3B2492B107018BF7F
:101FB00070BD0020107001F0F7002870741D40F211
:101FC0007800C2F2000021464222FEF7B5F996F8E9
:101FD000471040F2C822C2F200024E29106049D1D7
:101FE00096F84800622845D12878C0F3400100F0F7
:101FF0000102D14254D13179002967D040F27D21CC
:10200000C2F20001CA7840F004002870501CC87069
:10201000BDE8704000F0B8BA262827D10220107021
:1020200040F2CC20C2F200002621417070BD00BFFA
:102030000323137050B341F00100287070BD00BF3E
:1020400040F27D23C2F20003DB780426643383422E
:10205000167011BF41F0020040F2CC22C2F2000221
:10206000D07008BF01F0FD00287070BD0020107016
:1020700070BD00BF40F27000C2F20000017881F034
:1020800001010170BDE8704000F07EBA40F2CC2042
:10209000C2F200000022827001F0FE00287070BDC4
:1020A00040F27000C2F20000017881F0020101707C
:1020B00000F0E8FB40F27D20C2F20000C17801315F
:1020C000C170BDE8704000F05FBA00BF40F27D25EE
:1020D000C2F20005E87840F234210130C2F200017A
:1020E000C870081D21463C22FEF76EF8FFF790FEEF
:1020F0004FF4FA6000F00AF8E8780130E870BDE8C3
:10210000704000F041BA0000FEE70000002800F037
:10211000A18040F21C11C2F20001096810F0030313
:1021200001F12401A0F1010C2CD000220A6000BFB3
:102130000A68D2087C2A0BD80A68D2087C2A07D8F9
:102140000A68D2087C2A03D80A68B2F57A7FEFD3EE
:10215000012B62462BD000220A6000BF0A68D20819
:102160007C2A0BD80A68D2087C2A07D80A68D208C9
:102170007C2A03D80A68B2F57A7FEFD3022B03D109
:10218000821E14E0024612E000220A600A68D208A9
:102190007C2A0BD80A68D2087C2A07D80A68D20899
:1021A0007C2A03D80A68B2F57A7FEFD3C21EBCF14D
:1021B000030F38BF7047002002E000BF043A49D047
:1021C000086000BF0B68DB087C2B0BD80B68DB08B2
:1021D0007C2B07D80B68DB087C2B03D80B68B3F586
:1021E0007A7FEFD3086000BF0B68DB087C2B0BD82D
:1021F0000B68DB087C2B07D80B68DB087C2B03D82B
:102200000B68B3F57A7FEFD3086000BF0B68DB087B
:102210007C2B0BD80B68DB087C2B07D80B68DB0802
:102220007C2B03D80B68B3F57A7FEFD3086000BF2F
:102230000B68DB087C2BC1D80B68DB087C2BBDD876
:102240000B68DB087C2BB9D80B68B3F57A7FEFD32A
:10225000B4E700BF7047000090B0FEF787FB002492
:102260000120CDE90B44CDE9094406900A904FF4D2
:10227000E0104FF4803102250F9006A8CDE9071435
:10228000CDE90D51FEF724FD20B1EFF3108072B6B9
:10229000FEE700BF0F20CDE900054FF48060CDE9D7
:1022A0000304684602210294FEF70AFC20B1EFF312
:1022B000108072B6FEE700BF41F21800C4F20200BF
:1022C000016840F6000941F0200101600168C4F294
:1022D000010901F02001069106990168002241F0F0
:1022E0000401016001684FF4C07601F00401069119
:1022F00006990168002741F00801016000684FF469
:10230000C07100F00800069006984846FEF726FACD
:1023100009F580652846042100224FF00408FEF7E5
:102320001DFA069606AE4FF0010A022448463146D1
:10233000CDE907A70994FEF703F928463146CDE910
:10234000068ACDE90874FEF7FBF840F2C800A9F54B
:102350003441C2F2000048F2A0624FF48043C0F260
:10236000010280E88600C0E90373C0E90577C0E98F
:102370000777FEF7FFF928B1EFF3108072B600BFC0
:10238000FEE700BF40F2AC1009F54051C2F2000078
:102390004FF00C084FF4E13580E8A200C0E9037764
:1023A000C0E90587C761FFF73DFB28B1EFF3108057
:1023B00072B600BFFEE700BF40F2F010A9F544413D
:1023C000C2F20000002680E86200C0E90366C0E9AE
:1023D0000586C661FFF726FB20B1EFF3108072B6C9
:1023E000FEE700BF40F27005C2F20005A9F54041CA
:1023F000284640F8101F4FF4E1310C22C0E90116C5
:10240000C0E90366C0E90526C661FFF70BFB28B1EA
:10241000EFF3108072B600BFFEE700BF40F21C1061
:102420000021C2F200004FF0804248234FF6E857E7
:102430000991CDE90711CDE90011C0E90023C0E9F8
:10244000021701618161FEF775FE28B1EFF310807C
:1024500072B600BFFEE700BF4FF48050069040F216
:102460001C10C2F2000006A9FEF79CFF20B1EFF39A
:10247000108072B6FEE700BF40F21C10C2F20000EE
:102480006946FEF719FE28B1EFF3108072B600BF5F
:10249000FEE700BF40F264100021A9F58232C2F2CB
:1024A00000004FF4E1534EF65F270991CDE9071183
:1024B000CDE90011C0E90023C0E902170161816183
:1024C000FEF738FE20B1EFF3108072B6FEE700BFD2
:1024D0004FF48050069040F26410C2F2000006A94A
:1024E000FEF760FF20B1EFF3108072B6FEE700BF89
:1024F00040F26410C2F200006946FEF7DDFD18B13B
:10250000EFF3108072B6FEE743F20001C4F202015D
:10251000284640F8081FFDF753FF18B1EFF310806D
:1025200072B6FEE740F23420C2F2000043F63601F4
:1025300001803721817044F65351A0F846104321A1
:1025400040F27D2680F84810C2F200060120B070EB
:1025500042F21C60308046F24E20A6F8470040F25E
:102560001C100024C2F200006C60FEF791FE286986
:10257000C16841F02001C1604FF4FA60FDF7CCFF63
:10258000F47000F001F8FEE770B540F27D25C2F26C
:102590000005E8781E2803D10020E87070BD00BF58
:1025A0001D2800F2C48042F6AC01C0F600010A5CAE
:1025B000012A00F0BB8000BF1D2805D001300A5C55
:1025C000012AF9D1B2E000BF0878012802D1002029
:1025D000ACE000BF4878012802D10120A6E000BF8E
:1025E0008878012802D10220A0E000BFC878012825
:1025F00002D103209AE000BF0879012802D104200B
:1026000094E000BF4879012802D105208EE000BF88
:102610008879012802D1062088E000BFC879012806
:1026200002D1072082E000BF087A012802D10820E9
:102630007CE000BF487A012802D1092076E000BF83
:10264000887A012802D10A2070E000BFC87A0128E8
:1026500002D10B206AE000BF087B012802D10C20C8
:1026600064E000BF487B012802D10D205EE000BF7E
:10267000887B012802D10E2058E000BFC87B0128CA
:1026800002D10F2052E000BF087C012802D11020A7
:102690004CE000BF487C012802D1112046E000BF79
:1026A000887C012802D1122040E000BFC87C0128AC
:1026B00002D113203AE000BF087D012802D1142086
:1026C00034E000BF487D012802D115202EE000BF74
:1026D000887D012802D1162028E000BFC87D01288E
:1026E00002D1172022E000BF087E012802D1182065
:1026F0001CE000BF487E012802D1192016E000BF6F
:10270000887E012802D11A2010E000BFC87E01286F
:1027100002D11B200AE000BF087F012802D11C2043
:1027200004E000BF487F012801D11D20E87040F27D
:1027300024400026C4F200002E71066040F26410AE
:1027400040F60044C2F20000C4F20104FEF7D4FDDA
:1027500040F27401C2F2000140F2C4000A78C2F2F1
:102760000000067042F00800087040F27800691D11
:10277000C2F200004222FDF7DFFD40F21831C2F242
:1027800000010860204604210122FDF7E7FF40F226
:102790001C10C2F2000000686421243002E000BF77
:1027A00005395BD0066000BF0268D2087C2A0BD8CE
:1027B0000268D2087C2A07D80268D2087C2A03D88B
:1027C0000268B2F57A7FEFD3066000BF0268D208D4
:1027D0007C2A0BD80268D2087C2A07D80268D20863
:1027E0007C2A03D80268B2F57A7FEFD3066000BF77
:1027F0000268D2087C2A0BD80268D2087C2A07D843
:102800000268D2087C2A03D80268B2F57A7FEFD337
:10281000066000BF0268D2087C2A0BD80268D20882
:102820007C2A07D80268D2087C2A03D80268B2F54D
:102830007A7FEFD3066000BF0268D2087C2AAFD847
:102840000268D2087C2AABD80268D2087C2AA7D8B2
:102850000268B2F57A7FEFD3A2E700BF40F28000B2
:1028600040F27D21C2F20000C2F20001492264233D
:10287000FFF7F4F9204604210022BDE87040FDF77F
:102880006DBF000040F2C400C2F2000000210170E0
:102890007047010200000000000000000102030474
:1028A00006070809000000000102030401000000FF
:1028B0000000000000000000000000000000000018
:1028C00000000000000000000000020304050607ED
:1028D00008090A0B0C0D0E0F10100000002900084B
:1028E0000000002010000000280100081029000846
:1028F0001000002010090000440100080000000042
:1029000001000000100000000024F400000000009E
:04000005080000ED02
:00000001FF
